{
  "contractName": "AswapEtherToBTC",
  "abi": [
    {
      "constant": false,
      "inputs": [
        {
          "name": "_hashedsecret",
          "type": "bytes32"
        }
      ],
      "name": "refund",
      "outputs": [],
      "payable": false,
      "stateMutability": "nonpayable",
      "type": "function"
    },
    {
      "constant": false,
      "inputs": [
        {
          "name": "_participant",
          "type": "address"
        },
        {
          "name": "_secret",
          "type": "bytes32"
        },
        {
          "name": "_refundtime",
          "type": "uint256"
        }
      ],
      "name": "initiateSwap",
      "outputs": [],
      "payable": true,
      "stateMutability": "payable",
      "type": "function"
    },
    {
      "constant": false,
      "inputs": [
        {
          "name": "_secret",
          "type": "bytes32"
        },
        {
          "name": "_hashedsecret",
          "type": "bytes32"
        }
      ],
      "name": "redeemFund",
      "outputs": [],
      "payable": false,
      "stateMutability": "nonpayable",
      "type": "function"
    },
    {
      "constant": false,
      "inputs": [
        {
          "name": "_initiator",
          "type": "address"
        },
        {
          "name": "_hashedsecret",
          "type": "bytes32"
        },
        {
          "name": "_refundtime",
          "type": "uint256"
        }
      ],
      "name": "participate",
      "outputs": [],
      "payable": true,
      "stateMutability": "payable",
      "type": "function"
    },
    {
      "inputs": [],
      "payable": false,
      "stateMutability": "nonpayable",
      "type": "constructor"
    },
    {
      "payable": true,
      "stateMutability": "payable",
      "type": "fallback"
    },
    {
      "anonymous": false,
      "inputs": [
        {
          "indexed": false,
          "name": "_initiator",
          "type": "address"
        },
        {
          "indexed": false,
          "name": "_participant",
          "type": "address"
        },
        {
          "indexed": false,
          "name": "_hashedsecret",
          "type": "bytes32"
        },
        {
          "indexed": false,
          "name": "_refundtime",
          "type": "uint256"
        }
      ],
      "name": "Initiated",
      "type": "event"
    }
  ],
  "bytecode": "0x6060604052341561000f57600080fd5b336000806101000a81548173ffffffffffffffffffffffffffffffffffffffff021916908373ffffffffffffffffffffffffffffffffffffffff1602179055506108528061005e6000396000f300606060405260043610610062576000357c0100000000000000000000000000000000000000000000000000000000900463ffffffff1680637249fbb614610064578063797192431461008b578063e0ae2835146100cf578063fb21dd6f14610103575b005b341561006f57600080fd5b610089600480803560001916906020019091905050610147565b005b6100cd600480803573ffffffffffffffffffffffffffffffffffffffff1690602001909190803560001916906020019091908035906020019091905050610303565b005b34156100da57600080fd5b610101600480803560001916906020019091908035600019169060200190919050506104fd565b005b610145600480803573ffffffffffffffffffffffffffffffffffffffff1690602001909190803560001916906020019091908035906020019091905050610676565b005b803373ffffffffffffffffffffffffffffffffffffffff1660016000836000191660001916815260200190815260200160002060000160009054906101000a900473ffffffffffffffffffffffffffffffffffffffff1673ffffffffffffffffffffffffffffffffffffffff161415156101c057600080fd5b60016000826000191660001916815260200190815260200160002060060154421115156101ec57600080fd5b600060016000836000191660001916815260200190815260200160002060070160006101000a81548160ff0219169083151502179055151561022d57600080fd5b6001806000846000191660001916815260200190815260200160002060070160006101000a81548160ff02191690831515021790555060016000836000191660001916815260200190815260200160002060000160009054906101000a900473ffffffffffffffffffffffffffffffffffffffff1673ffffffffffffffffffffffffffffffffffffffff166108fc600160008560001916600019168152602001908152602001600020600201549081150290604051600060405180830381858888f1935050505015156102ff57600080fd5b5050565b600082604051808260001916600019168152602001915050604051809103902090503360016000836000191660001916815260200190815260200160002060000160006101000a81548173ffffffffffffffffffffffffffffffffffffffff021916908373ffffffffffffffffffffffffffffffffffffffff1602179055508360016000836000191660001916815260200190815260200160002060010160006101000a81548173ffffffffffffffffffffffffffffffffffffffff021916908373ffffffffffffffffffffffffffffffffffffffff1602179055503460016000836000191660001916815260200190815260200160002060020181905550826001600083600019166000191681526020019081526020016000206003018160001916905550806001600083600019166000191681526020019081526020016000206004018160001916905550426001600083600019166000191681526020019081526020016000206005018190555081600160008360001916600019168152602001908152602001600020600601819055506000809054906101000a900473ffffffffffffffffffffffffffffffffffffffff1673ffffffffffffffffffffffffffffffffffffffff166108fc349081150290604051600060405180830381858888f1935050505015156104f757600080fd5b50505050565b803373ffffffffffffffffffffffffffffffffffffffff1660016000836000191660001916815260200190815260200160002060010160009054906101000a900473ffffffffffffffffffffffffffffffffffffffff1673ffffffffffffffffffffffffffffffffffffffff1614151561057657600080fd5b60016000836000191660001916815260200190815260200160002060060154421015156105a257600080fd5b8160001916836040518082600019166000191681526020019150506040518091039020600019161415156105d557600080fd5b60016000836000191660001916815260200190815260200160002060010160009054906101000a900473ffffffffffffffffffffffffffffffffffffffff1673ffffffffffffffffffffffffffffffffffffffff166108fc600160008560001916600019168152602001908152602001600020600201549081150290604051600060405180830381858888f19350505050151561067157600080fd5b505050565b8260016000846000191660001916815260200190815260200160002060000160006101000a81548173ffffffffffffffffffffffffffffffffffffffff021916908373ffffffffffffffffffffffffffffffffffffffff1602179055503360016000846000191660001916815260200190815260200160002060010160006101000a81548173ffffffffffffffffffffffffffffffffffffffff021916908373ffffffffffffffffffffffffffffffffffffffff1602179055503460016000846000191660001916815260200190815260200160002060020181905550816001600084600019166000191681526020019081526020016000206004018160001916905550426001600084600019166000191681526020019081526020016000206005018190555080600160008460001916600019168152602001908152602001600020600601819055506000809054906101000a900473ffffffffffffffffffffffffffffffffffffffff1673ffffffffffffffffffffffffffffffffffffffff166108fc349081150290604051600060405180830381858888f19350505050151561082157600080fd5b5050505600a165627a7a72305820cf7d89f0577b03ad97829224e85da9163fbffcc22326cf29499532741b743cbe0029",
  "source": "pragma solidity 0.4.18;\n\n\ncontract AswapEtherToBTC{\n\n\tstruct Swap{\n\n\t\taddress initiator;\n\t\taddress participant;\n\t\tuint256 value;\n\t\tbytes32 secret;\n\t\tbytes32 hashedsecret;\n\t\tuint inittime;\n\t\tuint refundtime;\n\t\tbool emptied;\n\n\t}                                                                                                                                        \n\n\taddress owner;\n\tmapping(bytes32 => Swap) swaps;\n\n\tevent Initiated(address _initiator, \n\t\taddress _participant,\n\t\tbytes32 _hashedsecret,\n\t\tuint _refundtime);\n\n\n\n\tfunction AswapEtherToBTC() public{\n\n\t\towner = msg.sender;\n\t}\n\n\tfunction initiateSwap(address _participant, bytes32 _secret,uint _refundtime) public payable{\n\n\t\tbytes32 _hashedsecret = keccak256(_secret);\n\t\tswaps[_hashedsecret].initiator = msg.sender;\n\t\tswaps[_hashedsecret].participant = _participant;\n\t\tswaps[_hashedsecret].value = msg.value; \n\t\tswaps[_hashedsecret].secret = _secret;\n\t\tswaps[_hashedsecret].hashedsecret = _hashedsecret;\n\t\tswaps[_hashedsecret].inittime = block.timestamp;\n\t\tswaps[_hashedsecret].refundtime = _refundtime;\n\t\towner.transfer(msg.value);\n\t}\n\n\tfunction participate(address _initiator, bytes32 _hashedsecret, uint _refundtime) public payable {\n\n\t\tswaps[_hashedsecret].initiator = _initiator;\n\t\tswaps[_hashedsecret].participant = msg.sender;\n\t\tswaps[_hashedsecret].value = msg.value;\n\t\tswaps[_hashedsecret].hashedsecret = _hashedsecret;\n\t\tswaps[_hashedsecret].inittime = block.timestamp;\n\t\tswaps[_hashedsecret].refundtime = _refundtime;\n\t\towner.transfer(msg.value);\n\t}\n\n\tmodifier isParticipant(bytes32 _hashedsecret){\n\n\t\trequire(swaps[_hashedsecret].participant == msg.sender);\n\t\t_;\n\t}\n\n\tmodifier isInitiator(bytes32 _hashedsecret){\n\n\t\trequire(swaps[_hashedsecret].initiator == msg.sender);\n\t\t_;\n\t}\n\n\tmodifier isRefundable(bytes32 _hashedsecret) {\n\t\trequire(swaps[_hashedsecret].initiator == msg.sender);\n\t\trequire(block.timestamp > swaps[_hashedsecret].refundtime);\n\t\trequire(swaps[_hashedsecret].emptied = false);\n\t\t_;\n\t}\n\n\tfunction redeemFund(bytes32 _secret, bytes32 _hashedsecret) isParticipant(_hashedsecret) public{\n\t\trequire(block.timestamp < swaps[_hashedsecret].refundtime);\n\t\t//require(swaps[_hashedsecret].participant == msg.sender);\n\t\trequire(keccak256(_secret) == _hashedsecret);\n\t\tswaps[_hashedsecret].participant.transfer(swaps[_hashedsecret].value);\n\t}\n\n\tfunction refund(bytes32 _hashedsecret) isRefundable(_hashedsecret) public {\n\t\t//require(swaps[_hashedsecret].initiator == msg.sender);\n\t\tswaps[_hashedsecret].emptied = true;\n\t\tswaps[_hashedsecret].initiator.transfer(swaps[_hashedsecret].value);\n\n\t}\n\n\tfunction () payable public{}\n\n\n}",
  "sourcePath": "/home/light/Code/atomicswap/contracts/AswapEtherToBTC.sol",
  "compiler": {
    "name": "solc",
    "version": "0.4.18+commit.9cf6e910.Emscripten.clang"
  },
  "schemaVersion": "1.0.1",
  "updatedAt": "2018-04-02T05:05:41.939Z"
}