{
  "contractName": "AswapEtherToBTC",
  "abi": [
    {
      "constant": false,
      "inputs": [
        {
          "name": "_hashedsecret",
          "type": "bytes32"
        }
      ],
      "name": "refund",
      "outputs": [],
      "payable": true,
      "stateMutability": "payable",
      "type": "function"
    },
    {
      "constant": false,
      "inputs": [
        {
          "name": "_participant",
          "type": "address"
        },
        {
          "name": "_secret",
          "type": "bytes32"
        },
        {
          "name": "_refundtime",
          "type": "uint256"
        }
      ],
      "name": "initiateSwap",
      "outputs": [],
      "payable": true,
      "stateMutability": "payable",
      "type": "function"
    },
    {
      "constant": true,
      "inputs": [
        {
          "name": "_secret",
          "type": "bytes32"
        },
        {
          "name": "_hashedsecret",
          "type": "bytes32"
        }
      ],
      "name": "owner",
      "outputs": [
        {
          "name": "",
          "type": "address"
        }
      ],
      "payable": false,
      "stateMutability": "view",
      "type": "function"
    },
    {
      "constant": false,
      "inputs": [
        {
          "name": "_secret",
          "type": "bytes32"
        },
        {
          "name": "_hashedsecret",
          "type": "bytes32"
        },
        {
          "name": "_refundtime",
          "type": "uint256"
        }
      ],
      "name": "redeemFund",
      "outputs": [],
      "payable": true,
      "stateMutability": "payable",
      "type": "function"
    },
    {
      "inputs": [
        {
          "name": "_initiator",
          "type": "address"
        },
        {
          "name": "_hashedsecret",
          "type": "bytes32"
        },
        {
          "name": "_refundtime",
          "type": "uint256"
        }
      ],
      "payable": true,
      "stateMutability": "payable",
      "type": "function",
      "constant": false,
      "name": "participate",
      "outputs": []
    },
    {
      "payable": false,
      "stateMutability": "nonpayable",
      "type": "constructor",
      "anonymous": false,
      "inputs": [
        {
          "indexed": false,
          "name": "_initiator",
          "type": "address"
        },
        {
          "indexed": false,
          "name": "_participant",
          "type": "address"
        },
        {
          "indexed": false,
          "name": "_hashedsecret",
          "type": "bytes32"
        },
        {
          "indexed": false,
          "name": "_refundtime",
          "type": "uint256"
        }
      ],
      "name": "Initiated"
    },
    {
      "anonymous": false,
      "inputs": [
        {
          "indexed": false,
          "name": "_initiator",
          "type": "address"
        },
        {
          "indexed": false,
          "name": "_participant",
          "type": "address"
        },
        {
          "indexed": false,
          "name": "_hashedsecret",
          "type": "bytes32"
        },
        {
          "indexed": false,
          "name": "_refundtime",
          "type": "uint256"
        }
      ],
      "name": "Initiated",
      "type": "event"
    },
    {
      "anonymous": false,
      "inputs": [
        {
          "indexed": false,
          "name": "_msender",
          "type": "address"
        },
        {
          "indexed": false,
          "name": "_mvalue",
          "type": "uint256"
        },
        {
          "indexed": false,
          "name": "_secret",
          "type": "bytes32"
        },
        {
          "indexed": false,
          "name": "_hashedsecret",
          "type": "bytes32"
        }
      ],
      "name": "RedeemEvent",
      "type": "event"
    },
    {
      "anonymous": false,
      "inputs": [
        {
          "indexed": false,
          "name": "_msender",
          "type": "address"
        },
        {
          "indexed": false,
          "name": "_refundvalue",
          "type": "uint256"
        }
      ],
      "name": "RefundEvent",
      "type": "event"
    }
  ],
  "bytecode": "0x6060604052341561000f57600080fd5b336000806101000a81548173ffffffffffffffffffffffffffffffffffffffff021916908373ffffffffffffffffffffffffffffffffffffffff160217905550610b2e8061005e6000396000f30060606040526004361061006d576000357c0100000000000000000000000000000000000000000000000000000000900463ffffffff1680637249fbb614610072578063797192431461008e5780638da5cb5b146100d2578063e0ae283514610127578063fb21dd6f14610150575b600080fd5b61008c600480803560001916906020019091905050610194565b005b6100d0600480803573ffffffffffffffffffffffffffffffffffffffff16906020019091908035600019169060200190919080359060200190919050506103c6565b005b34156100dd57600080fd5b6100e56106a6565b604051808273ffffffffffffffffffffffffffffffffffffffff1673ffffffffffffffffffffffffffffffffffffffff16815260200191505060405180910390f35b61014e600480803560001916906020019091908035600019169060200190919050506106cb565b005b610192600480803573ffffffffffffffffffffffffffffffffffffffff1690602001909190803560001916906020019091908035906020019091905050610952565b005b803373ffffffffffffffffffffffffffffffffffffffff1660016000836000191660001916815260200190815260200160002060000160009054906101000a900473ffffffffffffffffffffffffffffffffffffffff1673ffffffffffffffffffffffffffffffffffffffff1614151561020d57600080fd5b600160008260001916600019168152602001908152602001600020600601544211151561023957600080fd5b6000151560016000836000191660001916815260200190815260200160002060070160009054906101000a900460ff16151514151561027757600080fd5b34600160008460001916600019168152602001908152602001600020600201541415156102a357600080fd5b6001806000846000191660001916815260200190815260200160002060070160006101000a81548160ff0219169083151502179055507fbc0482372603ca741e5519a33f61f01dcd0dd79215c58d17fa6977248f68c4bb3334604051808373ffffffffffffffffffffffffffffffffffffffff1673ffffffffffffffffffffffffffffffffffffffff1681526020018281526020019250505060405180910390a160016000836000191660001916815260200190815260200160002060000160009054906101000a900473ffffffffffffffffffffffffffffffffffffffff1673ffffffffffffffffffffffffffffffffffffffff166108fc349081150290604051600060405180830381858888f1935050505015156103c257600080fd5b5050565b600082604051808260001916600019168152602001915050604051809103902090503360016000836000191660001916815260200190815260200160002060000160006101000a81548173ffffffffffffffffffffffffffffffffffffffff021916908373ffffffffffffffffffffffffffffffffffffffff1602179055508360016000836000191660001916815260200190815260200160002060010160006101000a81548173ffffffffffffffffffffffffffffffffffffffff021916908373ffffffffffffffffffffffffffffffffffffffff160217905550346001600083600019166000191681526020019081526020016000206002018190555082600160008360001916600019168152602001908152602001600020600301816000191690555080600160008360001916600019168152602001908152602001600020600401816000191690555042600160008360001916600019168152602001908152602001600020600501819055508160016000836000191660001916815260200190815260200160002060060181905550600060016000836000191660001916815260200190815260200160002060070160006101000a81548160ff0219169083151502179055506000809054906101000a900473ffffffffffffffffffffffffffffffffffffffff1673ffffffffffffffffffffffffffffffffffffffff166108fc349081150290604051600060405180830381858888f1935050505015156105f157600080fd5b7faf4473a8909c354bb2e440ea96c0b89c4dea65535e80fcb974a417941e70546033858385604051808573ffffffffffffffffffffffffffffffffffffffff1673ffffffffffffffffffffffffffffffffffffffff1681526020018473ffffffffffffffffffffffffffffffffffffffff1673ffffffffffffffffffffffffffffffffffffffff168152602001836000191660001916815260200182815260200194505050505060405180910390a150505050565b6000809054906101000a900473ffffffffffffffffffffffffffffffffffffffff1681565b803373ffffffffffffffffffffffffffffffffffffffff1660016000836000191660001916815260200190815260200160002060010160009054906101000a900473ffffffffffffffffffffffffffffffffffffffff1673ffffffffffffffffffffffffffffffffffffffff1614151561074457600080fd5b60016000826000191660001916815260200190815260200160002060060154421115151561077157600080fd5b6000151560016000836000191660001916815260200190815260200160002060070160009054906101000a900460ff1615151415156107af57600080fd5b8160001916836040518082600019166000191681526020019150506040518091039020600019161415156107e257600080fd5b346001600084600019166000191681526020019081526020016000206002015414151561080e57600080fd5b6001806000846000191660001916815260200190815260200160002060070160006101000a81548160ff0219169083151502179055507fc9fc396fc31e97019b3d15f2f4e78a5b25d864ec546ffe0200c9324ce8e2280233348585604051808573ffffffffffffffffffffffffffffffffffffffff1673ffffffffffffffffffffffffffffffffffffffff1681526020018481526020018360001916600019168152602001826000191660001916815260200194505050505060405180910390a160016000836000191660001916815260200190815260200160002060010160009054906101000a900473ffffffffffffffffffffffffffffffffffffffff1673ffffffffffffffffffffffffffffffffffffffff166108fc349081150290604051600060405180830381858888f19350505050151561094d57600080fd5b505050565b8260016000846000191660001916815260200190815260200160002060000160006101000a81548173ffffffffffffffffffffffffffffffffffffffff021916908373ffffffffffffffffffffffffffffffffffffffff1602179055503360016000846000191660001916815260200190815260200160002060010160006101000a81548173ffffffffffffffffffffffffffffffffffffffff021916908373ffffffffffffffffffffffffffffffffffffffff1602179055503460016000846000191660001916815260200190815260200160002060020181905550816001600084600019166000191681526020019081526020016000206004018160001916905550426001600084600019166000191681526020019081526020016000206005018190555080600160008460001916600019168152602001908152602001600020600601819055506000809054906101000a900473ffffffffffffffffffffffffffffffffffffffff1673ffffffffffffffffffffffffffffffffffffffff166108fc349081150290604051600060405180830381858888f193505050501515610afd57600080fd5b5050505600a165627a7a7230582058b26df46f41937a6a3a2cf849e762e9390e2c79e52325fd902bc96c069c7e8e0029",
  "source": "pragma solidity 0.4.18;\n\n\ncontract AswapEtherToBTC{\n\n\tstruct Swap{\n\n\t\taddress initiator;\n\t\taddress participant;\n\t\tuint256 value;\n\t\tbytes32 secret;\n\t\tbytes32 hashedsecret;\n\t\tuint inittime;\n\t\tuint refundtime;\n\t\tbool emptied;\n\n\t}                                                                                                                                        \n\n\taddress public owner;\n\tmapping(bytes32 => Swap) swaps;\n\n\tevent Initiated(address _initiator, \n\t\taddress _participant,\n\t\tbytes32 _hashedsecret,\n\t\tuint _refundtime);\n\n\tevent RedeemEvent(address _msender, \n\t\tuint256 _mvalue, \n\t\tbytes32 _secret, \n\t\tbytes32 _hashedsecret);\n\n\tevent RefundEvent(address _msender,\n\t\tuint256 _refundvalue);\n\t\n\tfunction AswapEtherToBTC() public{\n\n\t\towner = msg.sender;\n\t\t\n\t}\n\n\tfunction initiateSwap(address _participant, bytes32 _secret,uint _refundtime) public payable{\n\n\t\tbytes32 _hashedsecret = keccak256(_secret);\n\t\tswaps[_hashedsecret].initiator = msg.sender;\n\t\tswaps[_hashedsecret].participant = _participant;\n\t\tswaps[_hashedsecret].value = msg.value; \n\t\tswaps[_hashedsecret].secret = _secret;\n\t\tswaps[_hashedsecret].hashedsecret = _hashedsecret;\n\t\tswaps[_hashedsecret].inittime = block.timestamp;\n\t\tswaps[_hashedsecret].refundtime = _refundtime;\n\t\tswaps[_hashedsecret].emptied = false;\n\t\towner.transfer(msg.value);\n\t\tInitiated(msg.sender,_participant,_hashedsecret,_refundtime);\n\t}\n\n\tfunction participate(address _initiator, bytes32 _hashedsecret, uint _refundtime) public payable {\n\n\t\tswaps[_hashedsecret].initiator = _initiator;\n\t\tswaps[_hashedsecret].participant = msg.sender;\n\t\tswaps[_hashedsecret].value = msg.value;\n\t\tswaps[_hashedsecret].hashedsecret = _hashedsecret;\n\t\tswaps[_hashedsecret].inittime = block.timestamp;\n\t\tswaps[_hashedsecret].refundtime = _refundtime;\n\t\towner.transfer(msg.value);\n\t}\n\t\n\tmodifier isRefundable(bytes32 _hashedsecret) {\n\t\trequire(swaps[_hashedsecret].initiator == msg.sender);\n\t\trequire(block.timestamp > swaps[_hashedsecret].refundtime);  \n\t\trequire(swaps[_hashedsecret].emptied == false);\n\t\t_;\n\t}\n\n\tmodifier isRedeemable(bytes32 _hashedsecret){\n\n\t\trequire(swaps[_hashedsecret].participant == msg.sender);\n\t\trequire(block.timestamp <= swaps[_hashedsecret].refundtime); \n\t\trequire(swaps[_hashedsecret].emptied == false);\n\t\t_;\n\t}\n\n\tfunction redeemFund(bytes32 _secret, bytes32 _hashedsecret) isRedeemable(_hashedsecret) public payable{\n\t\trequire(keccak256(_secret) == _hashedsecret);\n\t\trequire(swaps[_hashedsecret].value == msg.value);\n\t\tswaps[_hashedsecret].emptied = true;\n\t\tRedeemEvent(msg.sender,msg.value,_secret,_hashedsecret);\n\t\tswaps[_hashedsecret].participant.transfer(msg.value);\n\t}\n\n\tfunction refund(bytes32 _hashedsecret) isRefundable(_hashedsecret) public payable{\n\t\trequire(swaps[_hashedsecret].value == msg.value);\n\t\tswaps[_hashedsecret].emptied = true;\n\t\tRefundEvent(msg.sender,msg.value);\n\t\tswaps[_hashedsecret].initiator.transfer(msg.value);\n\t\t\n\t}\n\n\t//function () payable public{}\n\n\n}",
  "sourcePath": "/home/light/Code/atomicswap/contracts/AswapEtherToBTC.sol",
  "compiler": {
    "name": "solc",
    "version": "0.4.18+commit.9cf6e910.Emscripten.clang"
  },
  "schemaVersion": "1.0.1",
  "updatedAt": "2018-04-05T04:58:30.010Z"
}